{
  "_format": "hh-sol-artifact-1",
  "contractName": "SurfForCF",
  "sourceName": "contracts/FundContract.sol",
  "abi": [
    {
      "inputs": [
        {
          "internalType": "string",
          "name": "name",
          "type": "string"
        },
        {
          "internalType": "string",
          "name": "symbol",
          "type": "string"
        },
        {
          "internalType": "uint256",
          "name": "_goalAmount",
          "type": "uint256"
        },
        {
          "internalType": "uint256",
          "name": "_minDonation",
          "type": "uint256"
        },
        {
          "internalType": "string",
          "name": "_campaignURI",
          "type": "string"
        }
      ],
      "stateMutability": "nonpayable",
      "type": "constructor"
    },
    {
      "inputs": [
        {
          "internalType": "address",
          "name": "sender",
          "type": "address"
        },
        {
          "internalType": "uint256",
          "name": "tokenId",
          "type": "uint256"
        },
        {
          "internalType": "address",
          "name": "owner",
          "type": "address"
        }
      ],
      "name": "ERC721IncorrectOwner",
      "type": "error"
    },
    {
      "inputs": [
        {
          "internalType": "address",
          "name": "operator",
          "type": "address"
        },
        {
          "internalType": "uint256",
          "name": "tokenId",
          "type": "uint256"
        }
      ],
      "name": "ERC721InsufficientApproval",
      "type": "error"
    },
    {
      "inputs": [
        {
          "internalType": "address",
          "name": "approver",
          "type": "address"
        }
      ],
      "name": "ERC721InvalidApprover",
      "type": "error"
    },
    {
      "inputs": [
        {
          "internalType": "address",
          "name": "operator",
          "type": "address"
        }
      ],
      "name": "ERC721InvalidOperator",
      "type": "error"
    },
    {
      "inputs": [
        {
          "internalType": "address",
          "name": "owner",
          "type": "address"
        }
      ],
      "name": "ERC721InvalidOwner",
      "type": "error"
    },
    {
      "inputs": [
        {
          "internalType": "address",
          "name": "receiver",
          "type": "address"
        }
      ],
      "name": "ERC721InvalidReceiver",
      "type": "error"
    },
    {
      "inputs": [
        {
          "internalType": "address",
          "name": "sender",
          "type": "address"
        }
      ],
      "name": "ERC721InvalidSender",
      "type": "error"
    },
    {
      "inputs": [
        {
          "internalType": "uint256",
          "name": "tokenId",
          "type": "uint256"
        }
      ],
      "name": "ERC721NonexistentToken",
      "type": "error"
    },
    {
      "inputs": [
        {
          "internalType": "address",
          "name": "owner",
          "type": "address"
        }
      ],
      "name": "OwnableInvalidOwner",
      "type": "error"
    },
    {
      "inputs": [
        {
          "internalType": "address",
          "name": "account",
          "type": "address"
        }
      ],
      "name": "OwnableUnauthorizedAccount",
      "type": "error"
    },
    {
      "anonymous": false,
      "inputs": [
        {
          "indexed": true,
          "internalType": "address",
          "name": "owner",
          "type": "address"
        },
        {
          "indexed": true,
          "internalType": "address",
          "name": "approved",
          "type": "address"
        },
        {
          "indexed": true,
          "internalType": "uint256",
          "name": "tokenId",
          "type": "uint256"
        }
      ],
      "name": "Approval",
      "type": "event"
    },
    {
      "anonymous": false,
      "inputs": [
        {
          "indexed": true,
          "internalType": "address",
          "name": "owner",
          "type": "address"
        },
        {
          "indexed": true,
          "internalType": "address",
          "name": "operator",
          "type": "address"
        },
        {
          "indexed": false,
          "internalType": "bool",
          "name": "approved",
          "type": "bool"
        }
      ],
      "name": "ApprovalForAll",
      "type": "event"
    },
    {
      "anonymous": false,
      "inputs": [
        {
          "indexed": false,
          "internalType": "bool",
          "name": "isActive",
          "type": "bool"
        }
      ],
      "name": "CampaignStateChanged",
      "type": "event"
    },
    {
      "anonymous": false,
      "inputs": [
        {
          "indexed": false,
          "internalType": "address",
          "name": "donor",
          "type": "address"
        },
        {
          "indexed": false,
          "internalType": "uint256",
          "name": "amount",
          "type": "uint256"
        },
        {
          "indexed": false,
          "internalType": "uint256",
          "name": "tokenId",
          "type": "uint256"
        }
      ],
      "name": "DonationReceived",
      "type": "event"
    },
    {
      "anonymous": false,
      "inputs": [
        {
          "indexed": true,
          "internalType": "address",
          "name": "previousOwner",
          "type": "address"
        },
        {
          "indexed": true,
          "internalType": "address",
          "name": "newOwner",
          "type": "address"
        }
      ],
      "name": "OwnershipTransferred",
      "type": "event"
    },
    {
      "anonymous": false,
      "inputs": [
        {
          "indexed": true,
          "internalType": "address",
          "name": "from",
          "type": "address"
        },
        {
          "indexed": true,
          "internalType": "address",
          "name": "to",
          "type": "address"
        },
        {
          "indexed": true,
          "internalType": "uint256",
          "name": "tokenId",
          "type": "uint256"
        }
      ],
      "name": "Transfer",
      "type": "event"
    },
    {
      "inputs": [
        {
          "internalType": "address",
          "name": "to",
          "type": "address"
        },
        {
          "internalType": "uint256",
          "name": "tokenId",
          "type": "uint256"
        }
      ],
      "name": "approve",
      "outputs": [],
      "stateMutability": "nonpayable",
      "type": "function"
    },
    {
      "inputs": [
        {
          "internalType": "address",
          "name": "owner",
          "type": "address"
        }
      ],
      "name": "balanceOf",
      "outputs": [
        {
          "internalType": "uint256",
          "name": "",
          "type": "uint256"
        }
      ],
      "stateMutability": "view",
      "type": "function"
    },
    {
      "inputs": [],
      "name": "campaignURI",
      "outputs": [
        {
          "internalType": "string",
          "name": "",
          "type": "string"
        }
      ],
      "stateMutability": "view",
      "type": "function"
    },
    {
      "inputs": [],
      "name": "donate",
      "outputs": [],
      "stateMutability": "payable",
      "type": "function"
    },
    {
      "inputs": [
        {
          "internalType": "address",
          "name": "",
          "type": "address"
        },
        {
          "internalType": "uint256",
          "name": "",
          "type": "uint256"
        }
      ],
      "name": "donorTokens",
      "outputs": [
        {
          "internalType": "uint256",
          "name": "",
          "type": "uint256"
        }
      ],
      "stateMutability": "view",
      "type": "function"
    },
    {
      "inputs": [
        {
          "internalType": "uint256",
          "name": "tokenId",
          "type": "uint256"
        }
      ],
      "name": "getApproved",
      "outputs": [
        {
          "internalType": "address",
          "name": "",
          "type": "address"
        }
      ],
      "stateMutability": "view",
      "type": "function"
    },
    {
      "inputs": [
        {
          "internalType": "uint256",
          "name": "tokenId",
          "type": "uint256"
        }
      ],
      "name": "getDonationAmount",
      "outputs": [
        {
          "internalType": "uint256",
          "name": "",
          "type": "uint256"
        }
      ],
      "stateMutability": "view",
      "type": "function"
    },
    {
      "inputs": [
        {
          "internalType": "address",
          "name": "donor",
          "type": "address"
        }
      ],
      "name": "getDonorTokens",
      "outputs": [
        {
          "internalType": "uint256[]",
          "name": "",
          "type": "uint256[]"
        }
      ],
      "stateMutability": "view",
      "type": "function"
    },
    {
      "inputs": [],
      "name": "goalAmount",
      "outputs": [
        {
          "internalType": "uint256",
          "name": "",
          "type": "uint256"
        }
      ],
      "stateMutability": "view",
      "type": "function"
    },
    {
      "inputs": [],
      "name": "isActive",
      "outputs": [
        {
          "internalType": "bool",
          "name": "",
          "type": "bool"
        }
      ],
      "stateMutability": "view",
      "type": "function"
    },
    {
      "inputs": [
        {
          "internalType": "address",
          "name": "owner",
          "type": "address"
        },
        {
          "internalType": "address",
          "name": "operator",
          "type": "address"
        }
      ],
      "name": "isApprovedForAll",
      "outputs": [
        {
          "internalType": "bool",
          "name": "",
          "type": "bool"
        }
      ],
      "stateMutability": "view",
      "type": "function"
    },
    {
      "inputs": [],
      "name": "minDonation",
      "outputs": [
        {
          "internalType": "uint256",
          "name": "",
          "type": "uint256"
        }
      ],
      "stateMutability": "view",
      "type": "function"
    },
    {
      "inputs": [],
      "name": "name",
      "outputs": [
        {
          "internalType": "string",
          "name": "",
          "type": "string"
        }
      ],
      "stateMutability": "view",
      "type": "function"
    },
    {
      "inputs": [],
      "name": "owner",
      "outputs": [
        {
          "internalType": "address",
          "name": "",
          "type": "address"
        }
      ],
      "stateMutability": "view",
      "type": "function"
    },
    {
      "inputs": [
        {
          "internalType": "uint256",
          "name": "tokenId",
          "type": "uint256"
        }
      ],
      "name": "ownerOf",
      "outputs": [
        {
          "internalType": "address",
          "name": "",
          "type": "address"
        }
      ],
      "stateMutability": "view",
      "type": "function"
    },
    {
      "inputs": [],
      "name": "renounceOwnership",
      "outputs": [],
      "stateMutability": "nonpayable",
      "type": "function"
    },
    {
      "inputs": [
        {
          "internalType": "address",
          "name": "from",
          "type": "address"
        },
        {
          "internalType": "address",
          "name": "to",
          "type": "address"
        },
        {
          "internalType": "uint256",
          "name": "tokenId",
          "type": "uint256"
        }
      ],
      "name": "safeTransferFrom",
      "outputs": [],
      "stateMutability": "nonpayable",
      "type": "function"
    },
    {
      "inputs": [
        {
          "internalType": "address",
          "name": "from",
          "type": "address"
        },
        {
          "internalType": "address",
          "name": "to",
          "type": "address"
        },
        {
          "internalType": "uint256",
          "name": "tokenId",
          "type": "uint256"
        },
        {
          "internalType": "bytes",
          "name": "data",
          "type": "bytes"
        }
      ],
      "name": "safeTransferFrom",
      "outputs": [],
      "stateMutability": "nonpayable",
      "type": "function"
    },
    {
      "inputs": [
        {
          "internalType": "address",
          "name": "operator",
          "type": "address"
        },
        {
          "internalType": "bool",
          "name": "approved",
          "type": "bool"
        }
      ],
      "name": "setApprovalForAll",
      "outputs": [],
      "stateMutability": "nonpayable",
      "type": "function"
    },
    {
      "inputs": [
        {
          "internalType": "bytes4",
          "name": "interfaceId",
          "type": "bytes4"
        }
      ],
      "name": "supportsInterface",
      "outputs": [
        {
          "internalType": "bool",
          "name": "",
          "type": "bool"
        }
      ],
      "stateMutability": "view",
      "type": "function"
    },
    {
      "inputs": [],
      "name": "symbol",
      "outputs": [
        {
          "internalType": "string",
          "name": "",
          "type": "string"
        }
      ],
      "stateMutability": "view",
      "type": "function"
    },
    {
      "inputs": [],
      "name": "toggleCampaignState",
      "outputs": [],
      "stateMutability": "nonpayable",
      "type": "function"
    },
    {
      "inputs": [
        {
          "internalType": "uint256",
          "name": "",
          "type": "uint256"
        }
      ],
      "name": "tokenDonationAmount",
      "outputs": [
        {
          "internalType": "uint256",
          "name": "",
          "type": "uint256"
        }
      ],
      "stateMutability": "view",
      "type": "function"
    },
    {
      "inputs": [
        {
          "internalType": "uint256",
          "name": "",
          "type": "uint256"
        }
      ],
      "name": "tokenURI",
      "outputs": [
        {
          "internalType": "string",
          "name": "",
          "type": "string"
        }
      ],
      "stateMutability": "view",
      "type": "function"
    },
    {
      "inputs": [],
      "name": "totalRaised",
      "outputs": [
        {
          "internalType": "uint256",
          "name": "",
          "type": "uint256"
        }
      ],
      "stateMutability": "view",
      "type": "function"
    },
    {
      "inputs": [
        {
          "internalType": "address",
          "name": "from",
          "type": "address"
        },
        {
          "internalType": "address",
          "name": "to",
          "type": "address"
        },
        {
          "internalType": "uint256",
          "name": "tokenId",
          "type": "uint256"
        }
      ],
      "name": "transferFrom",
      "outputs": [],
      "stateMutability": "nonpayable",
      "type": "function"
    },
    {
      "inputs": [
        {
          "internalType": "address",
          "name": "newOwner",
          "type": "address"
        }
      ],
      "name": "transferOwnership",
      "outputs": [],
      "stateMutability": "nonpayable",
      "type": "function"
    },
    {
      "inputs": [],
      "name": "withdraw",
      "outputs": [],
      "stateMutability": "nonpayable",
      "type": "function"
    }
  ],
  "bytecode": "0x608060405234801561001057600080fd5b506040516130a13803806130a183398181016040528101906100329190610395565b3385858160009081610044919061067b565b508060019081610054919061067b565b505050600073ffffffffffffffffffffffffffffffffffffffff168173ffffffffffffffffffffffffffffffffffffffff16036100c95760006040517f1e4fbdf70000000000000000000000000000000000000000000000000000000081526004016100c0919061078e565b60405180910390fd5b6100d88161012460201b60201c565b508260088190555081600a8190555080600b90816100f6919061067b565b506001600c60006101000a81548160ff021916908315150217905550600060078190555050505050506107a9565b6000600660009054906101000a900473ffffffffffffffffffffffffffffffffffffffff16905081600660006101000a81548173ffffffffffffffffffffffffffffffffffffffff021916908373ffffffffffffffffffffffffffffffffffffffff1602179055508173ffffffffffffffffffffffffffffffffffffffff168173ffffffffffffffffffffffffffffffffffffffff167f8be0079c531659141344cd1fd0a4f28419497f9722a3daafe3b4186f6b6457e060405160405180910390a35050565b6000604051905090565b600080fd5b600080fd5b600080fd5b600080fd5b6000601f19601f8301169050919050565b7f4e487b7100000000000000000000000000000000000000000000000000000000600052604160045260246000fd5b61025182610208565b810181811067ffffffffffffffff821117156102705761026f610219565b5b80604052505050565b60006102836101ea565b905061028f8282610248565b919050565b600067ffffffffffffffff8211156102af576102ae610219565b5b6102b882610208565b9050602081019050919050565b60005b838110156102e35780820151818401526020810190506102c8565b60008484015250505050565b60006103026102fd84610294565b610279565b90508281526020810184848401111561031e5761031d610203565b5b6103298482856102c5565b509392505050565b600082601f830112610346576103456101fe565b5b81516103568482602086016102ef565b91505092915050565b6000819050919050565b6103728161035f565b811461037d57600080fd5b50565b60008151905061038f81610369565b92915050565b600080600080600060a086880312156103b1576103b06101f4565b5b600086015167ffffffffffffffff8111156103cf576103ce6101f9565b5b6103db88828901610331565b955050602086015167ffffffffffffffff8111156103fc576103fb6101f9565b5b61040888828901610331565b945050604061041988828901610380565b935050606061042a88828901610380565b925050608086015167ffffffffffffffff81111561044b5761044a6101f9565b5b61045788828901610331565b9150509295509295909350565b600081519050919050565b7f4e487b7100000000000000000000000000000000000000000000000000000000600052602260045260246000fd5b600060028204905060018216806104b657607f821691505b6020821081036104c9576104c861046f565b5b50919050565b60008190508160005260206000209050919050565b60006020601f8301049050919050565b600082821b905092915050565b6000600883026105317fffffffffffffffffffffffffffffffffffffffffffffffffffffffffffffffff826104f4565b61053b86836104f4565b95508019841693508086168417925050509392505050565b6000819050919050565b600061057861057361056e8461035f565b610553565b61035f565b9050919050565b6000819050919050565b6105928361055d565b6105a661059e8261057f565b848454610501565b825550505050565b600090565b6105bb6105ae565b6105c6818484610589565b505050565b5b818110156105ea576105df6000826105b3565b6001810190506105cc565b5050565b601f82111561062f57610600816104cf565b610609846104e4565b81016020851015610618578190505b61062c610624856104e4565b8301826105cb565b50505b505050565b600082821c905092915050565b600061065260001984600802610634565b1980831691505092915050565b600061066b8383610641565b9150826002028217905092915050565b61068482610464565b67ffffffffffffffff81111561069d5761069c610219565b5b6106a7825461049e565b6106b28282856105ee565b600060209050601f8311600181146106e557600084156106d3578287015190505b6106dd858261065f565b865550610745565b601f1984166106f3866104cf565b60005b8281101561071b578489015182556001820191506020850194506020810190506106f6565b868310156107385784890151610734601f891682610641565b8355505b6001600288020188555050505b505050505050565b600073ffffffffffffffffffffffffffffffffffffffff82169050919050565b60006107788261074d565b9050919050565b6107888161076d565b82525050565b60006020820190506107a3600083018461077f565b92915050565b6128e9806107b86000396000f3fe6080604052600436106101b75760003560e01c80638da5cb5b116100ec578063db912e371161008a578063e985e9c511610064578063e985e9c51461060e578063ed88c68e1461064b578063f2fde38b14610655578063f3eb69ab1461067e576101b7565b8063db912e3714610569578063e4b4a2b414610594578063e740a962146105d1576101b7565b8063b88d4fde116100c6578063b88d4fde146104c1578063c5c4744c146104ea578063c87b56dd14610515578063d43cee2f14610552576101b7565b80638da5cb5b1461044257806395d89b411461046d578063a22cb46514610498576101b7565b806323b872dd1161015957806342842e0e1161013357806342842e0e146103885780636352211e146103b157806370a08231146103ee578063715018a61461042b576101b7565b806323b872dd1461031d5780632636b945146103465780633ccfd60b14610371576101b7565b8063095ea7b311610195578063095ea7b3146102615780630c79186c1461028a5780631c0e0225146102c757806322f3e2d4146102f2576101b7565b806301ffc9a7146101bc57806306fdde03146101f9578063081812fc14610224575b600080fd5b3480156101c857600080fd5b506101e360048036038101906101de9190611ebc565b6106bb565b6040516101f09190611f04565b60405180910390f35b34801561020557600080fd5b5061020e61079d565b60405161021b9190611faf565b60405180910390f35b34801561023057600080fd5b5061024b60048036038101906102469190612007565b61082f565b6040516102589190612075565b60405180910390f35b34801561026d57600080fd5b50610288600480360381019061028391906120bc565b61084b565b005b34801561029657600080fd5b506102b160048036038101906102ac9190612007565b610861565b6040516102be919061210b565b60405180910390f35b3480156102d357600080fd5b506102dc61087e565b6040516102e9919061210b565b60405180910390f35b3480156102fe57600080fd5b50610307610884565b6040516103149190611f04565b60405180910390f35b34801561032957600080fd5b50610344600480360381019061033f9190612126565b610897565b005b34801561035257600080fd5b5061035b610999565b604051610368919061210b565b60405180910390f35b34801561037d57600080fd5b5061038661099f565b005b34801561039457600080fd5b506103af60048036038101906103aa9190612126565b610a3a565b005b3480156103bd57600080fd5b506103d860048036038101906103d39190612007565b610a5a565b6040516103e59190612075565b60405180910390f35b3480156103fa57600080fd5b5061041560048036038101906104109190612179565b610a6c565b604051610422919061210b565b60405180910390f35b34801561043757600080fd5b50610440610b26565b005b34801561044e57600080fd5b50610457610b3a565b6040516104649190612075565b60405180910390f35b34801561047957600080fd5b50610482610b64565b60405161048f9190611faf565b60405180910390f35b3480156104a457600080fd5b506104bf60048036038101906104ba91906121d2565b610bf6565b005b3480156104cd57600080fd5b506104e860048036038101906104e39190612347565b610c0c565b005b3480156104f657600080fd5b506104ff610c31565b60405161050c919061210b565b60405180910390f35b34801561052157600080fd5b5061053c60048036038101906105379190612007565b610c37565b6040516105499190611faf565b60405180910390f35b34801561055e57600080fd5b50610567610ccb565b005b34801561057557600080fd5b5061057e610d45565b60405161058b9190611faf565b60405180910390f35b3480156105a057600080fd5b506105bb60048036038101906105b69190612179565b610dd3565b6040516105c89190612488565b60405180910390f35b3480156105dd57600080fd5b506105f860048036038101906105f39190612007565b610e6a565b604051610605919061210b565b60405180910390f35b34801561061a57600080fd5b50610635600480360381019061063091906124aa565b610e82565b6040516106429190611f04565b60405180910390f35b610653610f16565b005b34801561066157600080fd5b5061067c60048036038101906106779190612179565b611107565b005b34801561068a57600080fd5b506106a560048036038101906106a091906120bc565b61118d565b6040516106b2919061210b565b60405180910390f35b60007f80ac58cd000000000000000000000000000000000000000000000000000000007bffffffffffffffffffffffffffffffffffffffffffffffffffffffff1916827bffffffffffffffffffffffffffffffffffffffffffffffffffffffff1916148061078657507f5b5e139f000000000000000000000000000000000000000000000000000000007bffffffffffffffffffffffffffffffffffffffffffffffffffffffff1916827bffffffffffffffffffffffffffffffffffffffffffffffffffffffff1916145b806107965750610795826111be565b5b9050919050565b6060600080546107ac90612519565b80601f01602080910402602001604051908101604052809291908181526020018280546107d890612519565b80156108255780601f106107fa57610100808354040283529160200191610825565b820191906000526020600020905b81548152906001019060200180831161080857829003601f168201915b5050505050905090565b600061083a82611228565b50610844826112b0565b9050919050565b61085d82826108586112ed565b6112f5565b5050565b6000600d6000838152602001908152602001600020549050919050565b600a5481565b600c60009054906101000a900460ff1681565b600073ffffffffffffffffffffffffffffffffffffffff168273ffffffffffffffffffffffffffffffffffffffff16036109095760006040517f64a0ae920000000000000000000000000000000000000000000000000000000081526004016109009190612075565b60405180910390fd5b600061091d83836109186112ed565b611307565b90508373ffffffffffffffffffffffffffffffffffffffff168173ffffffffffffffffffffffffffffffffffffffff1614610993578382826040517f64283d7b00000000000000000000000000000000000000000000000000000000815260040161098a9392919061254a565b60405180910390fd5b50505050565b60085481565b6109a7611521565b600047116109ea576040517f08c379a00000000000000000000000000000000000000000000000000000000081526004016109e1906125cd565b60405180910390fd5b6109f2610b3a565b73ffffffffffffffffffffffffffffffffffffffff166108fc479081150290604051600060405180830381858888f19350505050158015610a37573d6000803e3d6000fd5b50565b610a5583838360405180602001604052806000815250610c0c565b505050565b6000610a6582611228565b9050919050565b60008073ffffffffffffffffffffffffffffffffffffffff168273ffffffffffffffffffffffffffffffffffffffff1603610adf5760006040517f89c62b64000000000000000000000000000000000000000000000000000000008152600401610ad69190612075565b60405180910390fd5b600360008373ffffffffffffffffffffffffffffffffffffffff1673ffffffffffffffffffffffffffffffffffffffff168152602001908152602001600020549050919050565b610b2e611521565b610b3860006115a8565b565b6000600660009054906101000a900473ffffffffffffffffffffffffffffffffffffffff16905090565b606060018054610b7390612519565b80601f0160208091040260200160405190810160405280929190818152602001828054610b9f90612519565b8015610bec5780601f10610bc157610100808354040283529160200191610bec565b820191906000526020600020905b815481529060010190602001808311610bcf57829003601f168201915b5050505050905090565b610c08610c016112ed565b838361166e565b5050565b610c17848484610897565b610c2b610c226112ed565b858585856117dd565b50505050565b60095481565b6060600b8054610c4690612519565b80601f0160208091040260200160405190810160405280929190818152602001828054610c7290612519565b8015610cbf5780601f10610c9457610100808354040283529160200191610cbf565b820191906000526020600020905b815481529060010190602001808311610ca257829003601f168201915b50505050509050919050565b610cd3611521565b600c60009054906101000a900460ff1615600c60006101000a81548160ff0219169083151502179055507fc46211c9b55a1ef375a14253da6842458814234ed62ce46af242a9fb95b2a326600c60009054906101000a900460ff16604051610d3b9190611f04565b60405180910390a1565b600b8054610d5290612519565b80601f0160208091040260200160405190810160405280929190818152602001828054610d7e90612519565b8015610dcb5780601f10610da057610100808354040283529160200191610dcb565b820191906000526020600020905b815481529060010190602001808311610dae57829003601f168201915b505050505081565b6060600e60008373ffffffffffffffffffffffffffffffffffffffff1673ffffffffffffffffffffffffffffffffffffffff168152602001908152602001600020805480602002602001604051908101604052809291908181526020018280548015610e5e57602002820191906000526020600020905b815481526020019060010190808311610e4a575b50505050509050919050565b600d6020528060005260406000206000915090505481565b6000600560008473ffffffffffffffffffffffffffffffffffffffff1673ffffffffffffffffffffffffffffffffffffffff16815260200190815260200160002060008373ffffffffffffffffffffffffffffffffffffffff1673ffffffffffffffffffffffffffffffffffffffff16815260200190815260200160002060009054906101000a900460ff16905092915050565b600c60009054906101000a900460ff16610f65576040517f08c379a0000000000000000000000000000000000000000000000000000000008152600401610f5c90612639565b60405180910390fd5b600a54341015610faa576040517f08c379a0000000000000000000000000000000000000000000000000000000008152600401610fa1906126a5565b60405180910390fd5b3460096000828254610fbc91906126f4565b9250508190555060076000815480929190610fd690612728565b919050555060006007549050610fec338261198e565b34600d600083815260200190815260200160002081905550600e60003373ffffffffffffffffffffffffffffffffffffffff1673ffffffffffffffffffffffffffffffffffffffff1681526020019081526020016000208190806001815401808255809150506001900390600052602060002001600090919091909150557f4b0304ab2f313234b1cea012339c8f8c3bf2c8bb357d81a579cfdb35d2e3d03033348360405161109d93929190612770565b60405180910390a160085460095410611104576000600c60006101000a81548160ff0219169083151502179055507fc46211c9b55a1ef375a14253da6842458814234ed62ce46af242a9fb95b2a32660006040516110fb9190611f04565b60405180910390a15b50565b61110f611521565b600073ffffffffffffffffffffffffffffffffffffffff168173ffffffffffffffffffffffffffffffffffffffff16036111815760006040517f1e4fbdf70000000000000000000000000000000000000000000000000000000081526004016111789190612075565b60405180910390fd5b61118a816115a8565b50565b600e60205281600052604060002081815481106111a957600080fd5b90600052602060002001600091509150505481565b60007f01ffc9a7000000000000000000000000000000000000000000000000000000007bffffffffffffffffffffffffffffffffffffffffffffffffffffffff1916827bffffffffffffffffffffffffffffffffffffffffffffffffffffffff1916149050919050565b600080611234836119ac565b9050600073ffffffffffffffffffffffffffffffffffffffff168173ffffffffffffffffffffffffffffffffffffffff16036112a757826040517f7e27328900000000000000000000000000000000000000000000000000000000815260040161129e919061210b565b60405180910390fd5b80915050919050565b60006004600083815260200190815260200160002060009054906101000a900473ffffffffffffffffffffffffffffffffffffffff169050919050565b600033905090565b61130283838360016119e9565b505050565b600080611313846119ac565b9050600073ffffffffffffffffffffffffffffffffffffffff168373ffffffffffffffffffffffffffffffffffffffff161461135557611354818486611bae565b5b600073ffffffffffffffffffffffffffffffffffffffff168173ffffffffffffffffffffffffffffffffffffffff16146113e6576113976000856000806119e9565b6001600360008373ffffffffffffffffffffffffffffffffffffffff1673ffffffffffffffffffffffffffffffffffffffff168152602001908152602001600020600082825403925050819055505b600073ffffffffffffffffffffffffffffffffffffffff168573ffffffffffffffffffffffffffffffffffffffff1614611469576001600360008773ffffffffffffffffffffffffffffffffffffffff1673ffffffffffffffffffffffffffffffffffffffff168152602001908152602001600020600082825401925050819055505b846002600086815260200190815260200160002060006101000a81548173ffffffffffffffffffffffffffffffffffffffff021916908373ffffffffffffffffffffffffffffffffffffffff160217905550838573ffffffffffffffffffffffffffffffffffffffff168273ffffffffffffffffffffffffffffffffffffffff167fddf252ad1be2c89b69c2b068fc378daa952ba7f163c4a11628f55a4df523b3ef60405160405180910390a4809150509392505050565b6115296112ed565b73ffffffffffffffffffffffffffffffffffffffff16611547610b3a565b73ffffffffffffffffffffffffffffffffffffffff16146115a65761156a6112ed565b6040517f118cdaa700000000000000000000000000000000000000000000000000000000815260040161159d9190612075565b60405180910390fd5b565b6000600660009054906101000a900473ffffffffffffffffffffffffffffffffffffffff16905081600660006101000a81548173ffffffffffffffffffffffffffffffffffffffff021916908373ffffffffffffffffffffffffffffffffffffffff1602179055508173ffffffffffffffffffffffffffffffffffffffff168173ffffffffffffffffffffffffffffffffffffffff167f8be0079c531659141344cd1fd0a4f28419497f9722a3daafe3b4186f6b6457e060405160405180910390a35050565b600073ffffffffffffffffffffffffffffffffffffffff168273ffffffffffffffffffffffffffffffffffffffff16036116df57816040517f5b08ba180000000000000000000000000000000000000000000000000000000081526004016116d69190612075565b60405180910390fd5b80600560008573ffffffffffffffffffffffffffffffffffffffff1673ffffffffffffffffffffffffffffffffffffffff16815260200190815260200160002060008473ffffffffffffffffffffffffffffffffffffffff1673ffffffffffffffffffffffffffffffffffffffff16815260200190815260200160002060006101000a81548160ff0219169083151502179055508173ffffffffffffffffffffffffffffffffffffffff168373ffffffffffffffffffffffffffffffffffffffff167f17307eab39ab6107e8899845ad3d59bd9653f200f220920489ca2b5937696c31836040516117d09190611f04565b60405180910390a3505050565b60008373ffffffffffffffffffffffffffffffffffffffff163b1115611987578273ffffffffffffffffffffffffffffffffffffffff1663150b7a02868685856040518563ffffffff1660e01b815260040161183c94939291906127fc565b6020604051808303816000875af192505050801561187857506040513d601f19601f82011682018060405250810190611875919061285d565b60015b6118fc573d80600081146118a8576040519150601f19603f3d011682016040523d82523d6000602084013e6118ad565b606091505b5060008151036118f457836040517f64a0ae920000000000000000000000000000000000000000000000000000000081526004016118eb9190612075565b60405180910390fd5b805181602001fd5b63150b7a0260e01b7bffffffffffffffffffffffffffffffffffffffffffffffffffffffff1916817bffffffffffffffffffffffffffffffffffffffffffffffffffffffff19161461198557836040517f64a0ae9200000000000000000000000000000000000000000000000000000000815260040161197c9190612075565b60405180910390fd5b505b5050505050565b6119a8828260405180602001604052806000815250611c72565b5050565b60006002600083815260200190815260200160002060009054906101000a900473ffffffffffffffffffffffffffffffffffffffff169050919050565b8080611a225750600073ffffffffffffffffffffffffffffffffffffffff168273ffffffffffffffffffffffffffffffffffffffff1614155b15611b56576000611a3284611228565b9050600073ffffffffffffffffffffffffffffffffffffffff168373ffffffffffffffffffffffffffffffffffffffff1614158015611a9d57508273ffffffffffffffffffffffffffffffffffffffff168173ffffffffffffffffffffffffffffffffffffffff1614155b8015611ab05750611aae8184610e82565b155b15611af257826040517fa9fbf51f000000000000000000000000000000000000000000000000000000008152600401611ae99190612075565b60405180910390fd5b8115611b5457838573ffffffffffffffffffffffffffffffffffffffff168273ffffffffffffffffffffffffffffffffffffffff167f8c5be1e5ebec7d5bd14f71427d1e84f3dd0314c0f7b2291e5b200ac8c7c3b92560405160405180910390a45b505b836004600085815260200190815260200160002060006101000a81548173ffffffffffffffffffffffffffffffffffffffff021916908373ffffffffffffffffffffffffffffffffffffffff16021790555050505050565b611bb9838383611c96565b611c6d57600073ffffffffffffffffffffffffffffffffffffffff168373ffffffffffffffffffffffffffffffffffffffff1603611c2e57806040517f7e273289000000000000000000000000000000000000000000000000000000008152600401611c25919061210b565b60405180910390fd5b81816040517f177e802f000000000000000000000000000000000000000000000000000000008152600401611c6492919061288a565b60405180910390fd5b505050565b611c7c8383611d57565b611c91611c876112ed565b60008585856117dd565b505050565b60008073ffffffffffffffffffffffffffffffffffffffff168373ffffffffffffffffffffffffffffffffffffffff1614158015611d4e57508273ffffffffffffffffffffffffffffffffffffffff168473ffffffffffffffffffffffffffffffffffffffff161480611d0f5750611d0e8484610e82565b5b80611d4d57508273ffffffffffffffffffffffffffffffffffffffff16611d35836112b0565b73ffffffffffffffffffffffffffffffffffffffff16145b5b90509392505050565b600073ffffffffffffffffffffffffffffffffffffffff168273ffffffffffffffffffffffffffffffffffffffff1603611dc95760006040517f64a0ae92000000000000000000000000000000000000000000000000000000008152600401611dc09190612075565b60405180910390fd5b6000611dd783836000611307565b9050600073ffffffffffffffffffffffffffffffffffffffff168173ffffffffffffffffffffffffffffffffffffffff1614611e4b5760006040517f73c6ac6e000000000000000000000000000000000000000000000000000000008152600401611e429190612075565b60405180910390fd5b505050565b6000604051905090565b600080fd5b600080fd5b60007fffffffff0000000000000000000000000000000000000000000000000000000082169050919050565b611e9981611e64565b8114611ea457600080fd5b50565b600081359050611eb681611e90565b92915050565b600060208284031215611ed257611ed1611e5a565b5b6000611ee084828501611ea7565b91505092915050565b60008115159050919050565b611efe81611ee9565b82525050565b6000602082019050611f196000830184611ef5565b92915050565b600081519050919050565b600082825260208201905092915050565b60005b83811015611f59578082015181840152602081019050611f3e565b60008484015250505050565b6000601f19601f8301169050919050565b6000611f8182611f1f565b611f8b8185611f2a565b9350611f9b818560208601611f3b565b611fa481611f65565b840191505092915050565b60006020820190508181036000830152611fc98184611f76565b905092915050565b6000819050919050565b611fe481611fd1565b8114611fef57600080fd5b50565b60008135905061200181611fdb565b92915050565b60006020828403121561201d5761201c611e5a565b5b600061202b84828501611ff2565b91505092915050565b600073ffffffffffffffffffffffffffffffffffffffff82169050919050565b600061205f82612034565b9050919050565b61206f81612054565b82525050565b600060208201905061208a6000830184612066565b92915050565b61209981612054565b81146120a457600080fd5b50565b6000813590506120b681612090565b92915050565b600080604083850312156120d3576120d2611e5a565b5b60006120e1858286016120a7565b92505060206120f285828601611ff2565b9150509250929050565b61210581611fd1565b82525050565b600060208201905061212060008301846120fc565b92915050565b60008060006060848603121561213f5761213e611e5a565b5b600061214d868287016120a7565b935050602061215e868287016120a7565b925050604061216f86828701611ff2565b9150509250925092565b60006020828403121561218f5761218e611e5a565b5b600061219d848285016120a7565b91505092915050565b6121af81611ee9565b81146121ba57600080fd5b50565b6000813590506121cc816121a6565b92915050565b600080604083850312156121e9576121e8611e5a565b5b60006121f7858286016120a7565b9250506020612208858286016121bd565b9150509250929050565b600080fd5b600080fd5b7f4e487b7100000000000000000000000000000000000000000000000000000000600052604160045260246000fd5b61225482611f65565b810181811067ffffffffffffffff821117156122735761227261221c565b5b80604052505050565b6000612286611e50565b9050612292828261224b565b919050565b600067ffffffffffffffff8211156122b2576122b161221c565b5b6122bb82611f65565b9050602081019050919050565b82818337600083830152505050565b60006122ea6122e584612297565b61227c565b90508281526020810184848401111561230657612305612217565b5b6123118482856122c8565b509392505050565b600082601f83011261232e5761232d612212565b5b813561233e8482602086016122d7565b91505092915050565b6000806000806080858703121561236157612360611e5a565b5b600061236f878288016120a7565b9450506020612380878288016120a7565b935050604061239187828801611ff2565b925050606085013567ffffffffffffffff8111156123b2576123b1611e5f565b5b6123be87828801612319565b91505092959194509250565b600081519050919050565b600082825260208201905092915050565b6000819050602082019050919050565b6123ff81611fd1565b82525050565b600061241183836123f6565b60208301905092915050565b6000602082019050919050565b6000612435826123ca565b61243f81856123d5565b935061244a836123e6565b8060005b8381101561247b5781516124628882612405565b975061246d8361241d565b92505060018101905061244e565b5085935050505092915050565b600060208201905081810360008301526124a2818461242a565b905092915050565b600080604083850312156124c1576124c0611e5a565b5b60006124cf858286016120a7565b92505060206124e0858286016120a7565b9150509250929050565b7f4e487b7100000000000000000000000000000000000000000000000000000000600052602260045260246000fd5b6000600282049050600182168061253157607f821691505b602082108103612544576125436124ea565b5b50919050565b600060608201905061255f6000830186612066565b61256c60208301856120fc565b6125796040830184612066565b949350505050565b7f4e6f2066756e647320746f207769746864726177000000000000000000000000600082015250565b60006125b7601483611f2a565b91506125c282612581565b602082019050919050565b600060208201905081810360008301526125e6816125aa565b9050919050565b7f43616d706169676e206973206e6f742061637469766500000000000000000000600082015250565b6000612623601683611f2a565b915061262e826125ed565b602082019050919050565b6000602082019050818103600083015261265281612616565b9050919050565b7f446f6e6174696f6e2062656c6f77206d696e696d756d20616d6f756e74000000600082015250565b600061268f601d83611f2a565b915061269a82612659565b602082019050919050565b600060208201905081810360008301526126be81612682565b9050919050565b7f4e487b7100000000000000000000000000000000000000000000000000000000600052601160045260246000fd5b60006126ff82611fd1565b915061270a83611fd1565b9250828201905080821115612722576127216126c5565b5b92915050565b600061273382611fd1565b91507fffffffffffffffffffffffffffffffffffffffffffffffffffffffffffffffff8203612765576127646126c5565b5b600182019050919050565b60006060820190506127856000830186612066565b61279260208301856120fc565b61279f60408301846120fc565b949350505050565b600081519050919050565b600082825260208201905092915050565b60006127ce826127a7565b6127d881856127b2565b93506127e8818560208601611f3b565b6127f181611f65565b840191505092915050565b60006080820190506128116000830187612066565b61281e6020830186612066565b61282b60408301856120fc565b818103606083015261283d81846127c3565b905095945050505050565b60008151905061285781611e90565b92915050565b60006020828403121561287357612872611e5a565b5b600061288184828501612848565b91505092915050565b600060408201905061289f6000830185612066565b6128ac60208301846120fc565b939250505056fea2646970667358221220e4b5d89c3e22fe3d7233f062fd378b162b7b51c1a0966de2e4939e87b6b7b72564736f6c634300081c0033",
  "linkReferences": {},
  "deployedLinkReferences": {}
}